{"abi":[{"type":"function","name":"addNFT","inputs":[{"name":"tokenID","type":"uint256","internalType":"uint256"},{"name":"amount","type":"uint256","internalType":"uint256"}],"outputs":[],"stateMutability":"nonpayable"},{"type":"function","name":"buyNFT","inputs":[{"name":"tokenID","type":"uint256","internalType":"uint256"},{"name":"amount","type":"uint256","internalType":"uint256"}],"outputs":[],"stateMutability":"nonpayable"},{"type":"function","name":"tokensReceived","inputs":[{"name":"from","type":"address","internalType":"address"},{"name":"to","type":"address","internalType":"address"},{"name":"amount","type":"uint256","internalType":"uint256"},{"name":"tokenID","type":"uint256","internalType":"uint256"}],"outputs":[],"stateMutability":"nonpayable"},{"type":"error","name":"AddressEmptyCode","inputs":[{"name":"target","type":"address","internalType":"address"}]},{"type":"error","name":"AddressInsufficientBalance","inputs":[{"name":"account","type":"address","internalType":"address"}]},{"type":"error","name":"FailedInnerCall","inputs":[]},{"type":"error","name":"SafeERC20FailedOperation","inputs":[{"name":"token","type":"address","internalType":"address"}]}],"bytecode":{"object":"0x6080604052600080546001600160a01b031990811673bf5cfc6a505c51d7086a2dcca36b2b5e137dcaf91790915560018054909116737574f999a452746fcdf796a1bdf8d091c3580da317905534801561005857600080fd5b50610625806100686000396000f3fe608060405234801561001057600080fd5b50600436106100415760003560e01c80631bf0e3fc146100465780631d85bf031461005b578063b532b95d1461006e575b600080fd5b610059610054366004610519565b610081565b005b61005961006936600461055f565b61019a565b61005961007c36600461055f565b61025d565b6000818152600360205260409020805460ff191660011790556100a8565b60405180910390fd5b6000546001600160a01b031633146100ec5760405162461bcd60e51b8152602060048201526007602482015266676f206177617960c81b604482015260640161009f565b6000818152600260205260408120549054909250610115906001600160a01b0316333085610302565b6001546040516323b872dd60e01b8152306004820152336024820152604481018390526001600160a01b03909116906323b872dd90606401600060405180830381600087803b15801561016757600080fd5b505af115801561017b573d6000803e3d6000fd5b505050600091825250600360205260409020805460ff19169055505050565b6000828152600360205260409020805460ff191660011790555060008181526002602052604081205490546101da906001600160a01b0316333084610302565b6001546040516323b872dd60e01b8152306004820152336024820152604481018490526001600160a01b03909116906323b872dd90606401600060405180830381600087803b15801561022c57600080fd5b505af1158015610240573d6000803e3d6000fd5b50505060009283525050600360205260409020805460ff19169055565b6001546040516331a9108f60e11b81526004810184905233916001600160a01b031690636352211e90602401602060405180830381865afa1580156102a6573d6000803e3d6000fd5b505050506040513d601f19601f820116820180604052508101906102ca9190610581565b6001600160a01b03160361004157600082815260026020908152604080832084905560039091529020805460ff191660011790555050565b604080516001600160a01b0385811660248301528416604482015260648082018490528251808303909101815260849091019091526020810180516001600160e01b03166323b872dd60e01b17905261035c908590610362565b50505050565b60006103776001600160a01b038416836103ca565b9050805160001415801561039c57508080602001905181019061039a919061059e565b155b156103c557604051635274afe760e01b81526001600160a01b038416600482015260240161009f565b505050565b60606103d8838360006103df565b9392505050565b6060814710156104045760405163cd78605960e01b815230600482015260240161009f565b600080856001600160a01b0316848660405161042091906105c0565b60006040518083038185875af1925050503d806000811461045d576040519150601f19603f3d011682016040523d82523d6000602084013e610462565b606091505b509150915061047286838361047c565b9695505050505050565b6060826104915761048c826104d8565b6103d8565b81511580156104a857506001600160a01b0384163b155b156104d157604051639996b31560e01b81526001600160a01b038516600482015260240161009f565b50806103d8565b8051156104e85780518082602001fd5b604051630a12f52160e11b815260040160405180910390fd5b50565b6001600160a01b038116811461050157600080fd5b6000806000806080858703121561052f57600080fd5b843561053a81610504565b9350602085013561054a81610504565b93969395505050506040820135916060013590565b6000806040838503121561057257600080fd5b50508035926020909101359150565b60006020828403121561059357600080fd5b81516103d881610504565b6000602082840312156105b057600080fd5b815180151581146103d857600080fd5b6000825160005b818110156105e157602081860181015185830152016105c7565b50600092019182525091905056fea2646970667358221220503be196535e07a516f29bbac710de3498e28b038e2d14bf1042a8d5daef594164736f6c63430008150033","linkReferences":{}},"methodIdentifiers":{"addNFT(uint256,uint256)":"b532b95d","buyNFT(uint256,uint256)":"1d85bf03","tokensReceived(address,address,uint256,uint256)":"1bf0e3fc"},"id":46}