{"abi":[{"type":"constructor","inputs":[{"name":"name_","type":"string","internalType":"string"},{"name":"symbol_","type":"string","internalType":"string"}],"stateMutability":"nonpayable"},{"type":"function","name":"allowance","inputs":[{"name":"","type":"address","internalType":"address"},{"name":"","type":"address","internalType":"address"}],"outputs":[{"name":"","type":"uint256","internalType":"uint256"}],"stateMutability":"view"},{"type":"function","name":"approve","inputs":[{"name":"spender","type":"address","internalType":"address"},{"name":"amount","type":"uint256","internalType":"uint256"}],"outputs":[{"name":"","type":"bool","internalType":"bool"}],"stateMutability":"nonpayable"},{"type":"function","name":"balanceOf","inputs":[{"name":"","type":"address","internalType":"address"}],"outputs":[{"name":"","type":"uint256","internalType":"uint256"}],"stateMutability":"view"},{"type":"function","name":"burn","inputs":[{"name":"amount","type":"uint256","internalType":"uint256"}],"outputs":[],"stateMutability":"nonpayable"},{"type":"function","name":"decimals","inputs":[],"outputs":[{"name":"","type":"uint8","internalType":"uint8"}],"stateMutability":"view"},{"type":"function","name":"mint","inputs":[{"name":"amount","type":"uint256","internalType":"uint256"}],"outputs":[],"stateMutability":"nonpayable"},{"type":"function","name":"name","inputs":[],"outputs":[{"name":"","type":"string","internalType":"string"}],"stateMutability":"view"},{"type":"function","name":"symbol","inputs":[],"outputs":[{"name":"","type":"string","internalType":"string"}],"stateMutability":"view"},{"type":"function","name":"token","inputs":[],"outputs":[{"name":"","type":"address","internalType":"address"}],"stateMutability":"view"},{"type":"function","name":"totalSupply","inputs":[],"outputs":[{"name":"","type":"uint256","internalType":"uint256"}],"stateMutability":"view"},{"type":"function","name":"transfer","inputs":[{"name":"recipient","type":"address","internalType":"address"},{"name":"amount","type":"uint256","internalType":"uint256"}],"outputs":[{"name":"","type":"bool","internalType":"bool"}],"stateMutability":"nonpayable"},{"type":"function","name":"transferFrom","inputs":[{"name":"sender","type":"address","internalType":"address"},{"name":"recipient","type":"address","internalType":"address"},{"name":"amount","type":"uint256","internalType":"uint256"}],"outputs":[{"name":"","type":"bool","internalType":"bool"}],"stateMutability":"nonpayable"},{"type":"function","name":"transferWithCallback","inputs":[{"name":"sender","type":"address","internalType":"address"},{"name":"recipient","type":"address","internalType":"address"},{"name":"amount","type":"uint256","internalType":"uint256"},{"name":"data","type":"bytes","internalType":"bytes"}],"outputs":[{"name":"","type":"bool","internalType":"bool"}],"stateMutability":"nonpayable"},{"type":"event","name":"Approval","inputs":[{"name":"owner","type":"address","indexed":true,"internalType":"address"},{"name":"spender","type":"address","indexed":true,"internalType":"address"},{"name":"value","type":"uint256","indexed":false,"internalType":"uint256"}],"anonymous":false},{"type":"event","name":"Transfer","inputs":[{"name":"from","type":"address","indexed":true,"internalType":"address"},{"name":"to","type":"address","indexed":true,"internalType":"address"},{"name":"value","type":"uint256","indexed":false,"internalType":"uint256"}],"anonymous":false}],"bytecode":{"object":"0x60806040526005805460ff19166012179055600680546001600160a01b031916301790553480156200003057600080fd5b5060405162000d1338038062000d13833981016040819052620000539162000155565b60036200006183826200024e565b5060046200007082826200024e565b505060058054610100600160a81b0319163361010002179055506200031a565b634e487b7160e01b600052604160045260246000fd5b600082601f830112620000b857600080fd5b81516001600160401b0380821115620000d557620000d562000090565b604051601f8301601f19908116603f0116810190828211818310171562000100576200010062000090565b816040528381526020925086838588010111156200011d57600080fd5b600091505b8382101562000141578582018301518183018401529082019062000122565b600093810190920192909252949350505050565b600080604083850312156200016957600080fd5b82516001600160401b03808211156200018157600080fd5b6200018f86838701620000a6565b93506020850151915080821115620001a657600080fd5b50620001b585828601620000a6565b9150509250929050565b600181811c90821680620001d457607f821691505b602082108103620001f557634e487b7160e01b600052602260045260246000fd5b50919050565b601f8211156200024957600081815260208120601f850160051c81016020861015620002245750805b601f850160051c820191505b81811015620002455782815560010162000230565b5050505b505050565b81516001600160401b038111156200026a576200026a62000090565b62000282816200027b8454620001bf565b84620001fb565b602080601f831160018114620002ba5760008415620002a15750858301515b600019600386901b1c1916600185901b17855562000245565b600085815260208120601f198616915b82811015620002eb57888601518255948401946001909101908401620002ca565b50858210156200030a5787850151600019600388901b60f8161c191681555b5050505050600190811b01905550565b6109e9806200032a6000396000f3fe608060405234801561001057600080fd5b50600436106100cf5760003560e01c806370a082311161008c578063a9059cbb11610066578063a9059cbb146101ae578063d6dbeed4146101c1578063dd62ed3e146101d4578063fc0c546a146101ff57600080fd5b806370a082311461017357806395d89b4114610193578063a0712d681461019b57600080fd5b806306fdde03146100d4578063095ea7b3146100f257806318160ddd1461011557806323b872dd1461012c578063313ce5671461013f57806342966c681461015e575b600080fd5b6100dc61022a565b6040516100e991906106ce565b60405180910390f35b610105610100366004610738565b6102b8565b60405190151581526020016100e9565b61011e60025481565b6040519081526020016100e9565b61010561013a366004610762565b610325565b60055461014c9060ff1681565b60405160ff90911681526020016100e9565b61017161016c36600461079e565b610400565b005b61011e6101813660046107b7565b60006020819052908152604090205481565b6100dc610467565b6101716101a936600461079e565b610474565b6101056101bc366004610738565b610522565b6101056101cf3660046107d9565b6105a0565b61011e6101e2366004610874565b600160209081526000928352604080842090915290825290205481565b600654610212906001600160a01b031681565b6040516001600160a01b0390911681526020016100e9565b60038054610237906108a7565b80601f0160208091040260200160405190810160405280929190818152602001828054610263906108a7565b80156102b05780601f10610285576101008083540402835291602001916102b0565b820191906000526020600020905b81548152906001019060200180831161029357829003601f168201915b505050505081565b3360008181526001602090815260408083206001600160a01b038716808552925280832085905551919290917f8c5be1e5ebec7d5bd14f71427d1e84f3dd0314c0f7b2291e5b200ac8c7c3b925906103139086815260200190565b60405180910390a35060015b92915050565b6001600160a01b038316600090815260016020908152604080832033845290915281208054839190839061035a9084906108f7565b90915550506001600160a01b038416600090815260208190526040812080548492906103879084906108f7565b90915550506001600160a01b038316600090815260208190526040812080548492906103b490849061090a565b92505081905550826001600160a01b0316846001600160a01b0316600080516020610994833981519152846040516103ee91815260200190565b60405180910390a35060019392505050565b336000908152602081905260408120805483929061041f9084906108f7565b92505081905550806002600082825461043891906108f7565b90915550506040518181526000903390600080516020610994833981519152906020015b60405180910390a350565b60048054610237906108a7565b60055461010090046001600160a01b031633146104c25760405162461bcd60e51b8152602060048201526007602482015266676f206177617960c81b60448201526064015b60405180910390fd5b33600090815260208190526040812080548392906104e190849061090a565b9250508190555080600260008282546104fa919061090a565b909155505060405181815233906000906000805160206109948339815191529060200161045c565b336000908152602081905260408120805483919083906105439084906108f7565b90915550506001600160a01b0383166000908152602081905260408120805484929061057090849061090a565b90915550506040518281526001600160a01b03841690339060008051602061099483398151915290602001610313565b336000908152602081905260408120805485919083906105c19084906108f7565b90915550506001600160a01b038516600090815260208190526040812080548692906105ee90849061090a565b90915550506001600160a01b0385163b156106c25760405163af68638960e01b81526000906001600160a01b0387169063af6863899061063a908a908a908a908a908a9060040161091d565b6020604051808303816000875af1158015610659573d6000803e3d6000fd5b505050506040513d601f19601f8201168201806040525081019061067d9190610971565b9050806106c05760405162461bcd60e51b8152602060048201526011602482015270139bc81d1bdad95b9cd49958d95a5d9959607a1b60448201526064016104b9565b505b50600195945050505050565b600060208083528351808285015260005b818110156106fb578581018301518582016040015282016106df565b506000604082860101526040601f19601f8301168501019250505092915050565b80356001600160a01b038116811461073357600080fd5b919050565b6000806040838503121561074b57600080fd5b6107548361071c565b946020939093013593505050565b60008060006060848603121561077757600080fd5b6107808461071c565b925061078e6020850161071c565b9150604084013590509250925092565b6000602082840312156107b057600080fd5b5035919050565b6000602082840312156107c957600080fd5b6107d28261071c565b9392505050565b6000806000806000608086880312156107f157600080fd5b6107fa8661071c565b94506108086020870161071c565b935060408601359250606086013567ffffffffffffffff8082111561082c57600080fd5b818801915088601f83011261084057600080fd5b81358181111561084f57600080fd5b89602082850101111561086157600080fd5b9699959850939650602001949392505050565b6000806040838503121561088757600080fd5b6108908361071c565b915061089e6020840161071c565b90509250929050565b600181811c908216806108bb57607f821691505b6020821081036108db57634e487b7160e01b600052602260045260246000fd5b50919050565b634e487b7160e01b600052601160045260246000fd5b8181038181111561031f5761031f6108e1565b8082018082111561031f5761031f6108e1565b6001600160a01b038681168252851660208201526040810184905260806060820181905281018290526000828460a0840137600060a0848401015260a0601f19601f85011683010190509695505050505050565b60006020828403121561098357600080fd5b815180151581146107d257600080fdfeddf252ad1be2c89b69c2b068fc378daa952ba7f163c4a11628f55a4df523b3efa2646970667358221220b765417259337f00f5deddf7c049438a54f17c021458a060653f78ec47c7890964736f6c63430008150033","linkReferences":{}},"methodIdentifiers":{"allowance(address,address)":"dd62ed3e","approve(address,uint256)":"095ea7b3","balanceOf(address)":"70a08231","burn(uint256)":"42966c68","decimals()":"313ce567","mint(uint256)":"a0712d68","name()":"06fdde03","symbol()":"95d89b41","token()":"fc0c546a","totalSupply()":"18160ddd","transfer(address,uint256)":"a9059cbb","transferFrom(address,address,uint256)":"23b872dd","transferWithCallback(address,address,uint256,bytes)":"d6dbeed4"},"id":43}